:100000000C94BF040C9406050C9406050C9406058C
:100010000C9406050C9406050C9406050C94060534
:100020000C9406050C9406050C9443300C94153181
:100030000C94832A0C9406050C9406050C94060572
:100040000C9406050C9406050C9406050C94060504
:100050000C9406050C94DC2A0C9406050C940605F9
:100060000C9406050C9406050C9406050C940605E4
:100070000C9406050C9406050C9406050C940605D4
:100080000C9406050C9406050C9406050C940605C4
:100090000C9406050C9406050C9406050C940605B4
:1000A0000C9406050C9406050C940605390B2F0BD1
:1000B000430B8B0B8F0B8F0B8B0B8F0B8F0B640BEF
:1000C0008F0B6E0B780B8F0B8F0B8F0B8F0B8B0B9C
:1000D0008F0B8F0B8B0B8F0B510B8F0B8F0B880B99
:1000E000880B880B880B880B880B880B880B880B78
:1000F0008D0B8F0B390B2C0B8F0B8F0B8F0B8F0BEB
:100100008F0B8F0B8F0B8F0B8F0B8F0B8D0B8F0B21
:100110008F0B8B0B8F0B860B860B860B860B860B40
:10012000860B860B860B860B8D0B511654165C16B0
:10013000611666166B16701675167A167F1684167B
:1001400089168B168E169116941697169A169C166B
:10015000A116F31FF31F2520252070208E20AE212D
:10016000AE219B2030213F213F219F21AE21AE2196
:10017000A8214E224E226022602257226022602255
:1001800060224E224E225C22602260225C2282315A
:10019000A931A132A931A132F5311832A1326F3221
:1001A0007E322B0014001A000800150017001C00F6
:1001B00018000C00120013002A00E00004001600D2
:1001C000070009000A000B000D000E000F003300AD
:1001D0003400E1001D001B0006001900050011009D
:1001E000100036003700380035000000E000E30062
:1001F000E200284200002C4300002D002E003100B8
:1002000000002B0014001A000800150017001C0045
:1002100018000C00120013002A00E0000400160071
:10022000070009000A000B000D000E000F0033004C
:100230003400E1001D001B0006001900050011003C
:10024000100036003700380035000000E000E30001
:10025000E200284200002C4300002D002E00310057
:10026000000029001E001F002000210022002300A2
:10027000240025002600270001000100AC00AE008C
:10028000AB000100010001005000510052004F007E
:1002900001000100B6000100B700010001000100EB
:1002A0000100010001000100005C00000100AA0043
:1002B000A90001000000010000002F0030000153E0
:1002C000000029001E001F00200021002200230042
:1002D000240025002600270001000100C75CC35C44
:1002E000C55CD05C010001005000510052004F007D
:1002F00001000100CA5CC25CC95C01000100010090
:1003000001000100010001000100000001000100E6
:10031000010001000000010000002F003000015327
:10032000000014050100000000000000002A2B2836
:1003300000000000000000000000000000000000BD
:1003400029000000002C1E342021222434262725D9
:100350002E362D3738271E1F202122232425263311
:1003600033362E37381F0405060708090A0B0C0D13
:100370000E0F101112131415161718191A1B1C1D25
:100380002F3130232D350405060708090A0B0C0D03
:100390000E0F101112131415161718191A1B1C1D05
:1003A0002F3130354C00000000000000000000003C
:1003B000000000000000000000000000000000003D
:1003C0000000000000000000007E0F00D4FFFFFFCF
:1003D000C7000000781E0F0500047F3F1F64321421
:1003E000783C1E1E140A052223252628292A2C2D96
:1003F0002F3032333536383A3B3D3E404243454755
:10040000494A4C4E5051535557595A5C5E6062648C
:100410006668696B6D6F71737577797B7D7F81839A
:100420008587898A8C8E90929496989A9C9E9FA19B
:10043000A3A5A7A8AAACAEAFB1B3B4B6B8B9BBBCBC
:10044000BEBFC1C2C3C5C6C7C9CACBCCCDCED0D131
:10045000D2D2D3D4D5D6D7D7D8D9D9DADADBDBDB29
:10046000DCDCDCDCDCDDDDDDDDDCDCDCDCDCDBDBCA
:10047000DBDADAD9D9D8D7D7D6D5D4D3D2D2D1D01E
:10048000CECDCCCBCAC9C7C6C5C3C2C1BFBEBCBB1B
:10049000B9B8B6B4B3B1AFAEACAAA8A7A5A3A19F93
:1004A0009E9C9A98969492908E8C8A898785838157
:1004B0007F7D7B79777573716F6D6B696866646238
:1004C000605E5C5A5957555351504E4C4A49474506
:1004D0004342403E3D3B3A3836353332302F2D2CA7
:1004E0002A292826252322FFAA7F55400001010141
:1004F00001010101010102020202020202020203E1
:1005000003030303030303040404040404040505B0
:100510000505050606060606070707070708080873
:1005200008090909090A0A0A0B0B0B0C0C0C0D0D22
:100530000D0E0E0E0F0F0F101011111112121313BA
:100540001414151516161717181819191A1A1B1B33
:100550001C1D1D1E1E1F202021222223242425268F
:1005600026272829292A2B2C2D2D2E2F30313232C7
:10057000333435363738393A3B3C3D3E3F404142D3
:10058000434445464748494A4C4D4E4F50515354B9
:10059000555658595A5B5D5E5F616264656668696D
:1005A0006B6C6D6F7072737577787A7B7D7E8082ED
:1005B000838587888A8C8E8F91939596989A9C9E36
:1005C000A0A2A3A5A7A9ABADAFB1B3B5B7BABCBE46
:1005D000C0C2C4C6C9CBCDCFD1D4D6D8DBDDDFE213
:1005E000E4E7E9EBEEF0F3F5F8FAFDFFFD377A58B2
:1005F0005A000004E6D6B4460200210116000000AD
:10060000742FE5A3E00547016F5D003D8889C6545E
:1006100036C3174FE4E2A73E7FE526006AD6C64DF3
:100620006DA19EC65954C32B04E1E320DB3FE6AA2B
:10063000367EA1935B71B253E5F696902F780674DF
:10064000659A40054CA57AEAF31015853A3037E7EC
:1006500056EE1E071FE8E1C4775E9DB2BEC8F3AC3C
:1006600075A5DFCED9115F093430471175BFD13977
:100670009A2438B81E6DACBA69D8C4DF1316BD6AA7
:10068000EE98A8B8EB11983B9B2467C516DEBEC454
:10069000581E91FAE013BB11C1897AA76D2661E952
:1006A0006DF3B2AD1F1A4F82F34F26ABCDFA5EB792
:1006B00040DEC7822FF9C7B9C1375BA1A5502076AC
:1006C0000722439DB33953E73DB6E0A26592D513A7
:1006D000A4E223E3526F5C282946A0949783EE3B63
:1006E0007B687ED883020E0426941C46EF659CF23C
:1006F00034ADFCDA31D50575D9ADFFE4578EFFA5D1
:100700007E96B3DA2BCDC1661310F8E0F6A9BCB122
:100710009200EA9DF03E953D7EB1B5E475B8E6F6EF
:10072000D0897EE9BE46EBB7D804406FC73F8D2124
:100730001D2B9F29513EAB5AA1B40C3448569960E9
:1007400071983ABB4047C9B9914ACA97C792639614
:100750003F4D10769E50A63131ACD9984BF355FCE5
:100760003D7672AACC146D5D4269789222261CAB4C
:1007700017B75A30890F3AAD3AEB0000F10AA1F4ED
:10078000FE2F9B7800018B03C80A00002909EC4E5C
:10079000B1C467FB020000000004595A1C03760034
:1007A000690061006C003A006600360034006300A6
:1007B0003200620033006300000018034D006F0038
:1007C00072006E0069006E006700730074006100C3
:1007D00072000000180353007400610072002000D2
:1007E00042006F00610072006400730000000403A7
:1007F000090409025B00030100A0FA0904000001DA
:1008000003010100092111010001224000070581B7
:100810000308000A09040100020300000009211175
:1008200001000122220007058203200001070503C1
:100830000320000109040200010300000009211146
:1008400001000122BC000705840320000A120110E8
:100850000100000008EDFE606001000102030106D6
:1008600060FF0961A1010962150026FF009520754E
:100870000881020963150026FF0095207508910282
:10088000C005010902A10185020901A1000509199C
:100890000129051500250195057501810295017550
:1008A0000381010501093009311581257F95027504
:1008B00008810609381581257F950175088106058F
:1008C0000C0A38021581257F950175088106C0C084
:1008D00005010980A101850319012AB70015012628
:1008E000B700950175108100C0050C0901A10185B3
:1008F0000419012AA002150126A002950175108194
:1009000000C005010906A1018505050719E029E7D1
:10091000150025019508750181020507190029EFC9
:100920001500250195F075018102050819012905B9
:10093000950575019102950175039101C0050109A5
:1009400006A101050719E029E7150025019508759D
:100950000181029501750881010507190029FF151C
:100960000026FF0095067508810005081901290574
:10097000950575019102950175039101C00011243F
:100980001FBECFEFDAE0DEBFCDBF04B603FE27C047
:100990008091230390912403A0912503B091260315
:1009A0008730904BA740B04BD1F4109223031092A4
:1009B0002403109225031092260314BE84B7877F68
:1009C00084BF0FB6F894A8958091600088618093E9
:1009D0006000109260000FBEE0E0F8E3099511E0BE
:1009E000A0E0B1E0E2EBF8E602C005900D92AC3E6B
:1009F000B107D9F723E0ACEEB1E001C01D92A332FC
:100A0000B207E1F70E94FC2C0C9457340C940000C0
:100A100081E0089581E008950C940A0508950C94EE
:100A20000E051F93CF93DF9300D000D01F92CDB758
:100A3000DEB749835A836B833091440289819A815E
:100A4000311114C0662359F0222349F00E948727F0
:100A5000182F682F89819A810E94302703C00E9435
:100A60005B27182F69817A81812F04C00E94872714
:100A700069817A810F900F900F900F900F90DF9106
:100A8000CF911F910C947E1AFC01262F4081518139
:100A90006281738184810C941105CF93DF93EC0103
:100AA00060E00E944405BE01DF91CF910C940F05D8
:100AB0008F929F92AF92BF92CF92DF92EF92FF926E
:100AC0000F931F936B017C0181E090E0A0E0B0E008
:100AD0004C015D0104C0880C991CAA1CBB1C4A95E2
:100AE000D2F7AC01BD0104C0440F551F661F771F2C
:100AF0002A95D2F7482959296A297B2904C0880FE9
:100B0000991FAA1FBB1F0A95D2F78A019B010C21CE
:100B10001D212E213F21401751076207730739F429
:100B2000BC01CD016C297D298E299F290AC08095A1
:100B30009095A095B095BC01CD016C217D218E21B1
:100B40009F211F910F91FF90EF90DF90CF90BF906A
:100B5000AF909F908F9008950F93382F262F60911C
:100B60009B0270919C0280919D0290919E02042FA5
:100B7000432F0E9458050F910C946C260E941A2B4B
:100B80000E94C128811102C00E9468290C94190991
:100B90000C94150908950E943C220E94CA052FEF6B
:100BA00084E39CE0215080409040E1F700C00000C9
:100BB0000C94022B0F931F93CF93DF93EC0161E012
:100BC0000E9444058C01BE010E9433178823A9F1BD
:100BD000BE01C8010E940C05882379F1BE01C8013D
:100BE0000E94B91B882349F1BE01C8010E940B1C59
:100BF000882319F1BE01C8010E94361D8823E9F03F
:100C0000BE01C8010E943A168823B9F08A81882360
:100C100069F001158CE5180731F00E3D1C4531F4E3
:100C20000E9468290AC00E94CB0507C0CE01DF914F
:100C3000CF911F910F910C94080580E0DF91CF9127
:100C40001F910F910895DF92EF92FF920F931F93E0
:100C5000CF93DF93E82FF0E0EB5DFC4FD490282F8B
:100C600026952695269530E0F901EB53FC4F04912B
:100C7000877010E0082E02C0159507950A94E2F7D8
:100C800001701127F901EB54FC4FE490F12C082E70
:100C900002C0F594E7940A94E2F791E0E922FF2478
:100CA000F901EB55FC4FC491D0E002C0D595C79532
:100CB0008A95E2F7C170DD270115110519F081EE63
:100CC0000E94031FE114F10419F086EE0E94031F35
:100CD0008D2D0E94A91FEF2819F086EE0E945E1F3D
:100CE000012B19F081EE0E945E1FCD2B51F08CE29A
:100CF000DF91CF911F910F91FF90EF90DF900C94B7
:100D0000A91FDF91CF911F910F91FF90EF90DF907E
:100D10000895EF92FF920F931F93CF93DF93EC010F
:100D2000162F0AE08881882309F455C0813009F024
:100D300043C08981813041F47E0182E0E80EF11CDC
:100D40008A810E94A91F09C0823049F47E01E2E035
:100D5000EE0EF11C8A810E94031FE7012FC0833031
:100D600041F47E01F2E0EF0EF11C8A810E945E1FC9
:100D7000F4CF843011F0219621C02A81229680E0A0
:100D800090E030E0205331092A30310558F4089FB3
:100D9000A001099F500D1124C901840F951F2196B0
:100DA0002881EFCF009751F0EFE9FFE03197F1F79D
:100DB00000C000000197F6CF0E9423062196812FE4
:100DC000882309F4AFCFEFE9FFE03197F1F700C0D6
:100DD00000008150F5CFDF91CF911F910F91FF90CF
:100DE000EF90089560E00C94890608950C94F50640
:100DF00081E008950C94F806CF93C82F0E94F60660
:100E00008C2F0E94FA06CF91089580E090E008951B
:100E10000895880F991FFC01EB52FC4F8591949126
:100E20000895CF93DF930E947E1A0E942908EC0157
:100E30008115904508F041C0C11580E4D80708F03D
:100E4000D1C0C83ED10510F5C03ED10508F0FDC0A7
:100E5000C83AD10578F4C53AD10508F0A2C0C1302E
:100E6000D10509F4F2C008F4EEC0C430D10508F091
:100E7000ECC0E9C0CF3BD10508F49BC0C03CD10514
:100E800008F4E1C0CE01805C91099EC0C11590E2DA
:100E9000D90758F4C11521E0D20708F0D6C0C03FE9
:100EA000D10508F4D0C0D065D0C0C11580E3D80703
:100EB00008F08EC0CE019F7087C0C11595E5D90797
:100EC00008F043C0C11524E5D20708F0A2C0C1153F
:100ED00082E5D80708F5C11591E5D90708F085C066
:100EE000CE0174E0969587957A95E1F783709C2FF3
:100EF000937021E030E002C0220F331F9A95E2F791
:100F00003C68382BCF70C695C69580E2C89FE0013B
:100F10001124C22BD32B99C09E01237033278C2F11
:100F200086958695C115D34508F064C0C1E0D0E030
:100F300002C0CC0FDD1F2A95E2F720E2829FC0019C
:100F40001124C82BD92BDC6880C0C11529E5D20734
:100F5000A0F4C11588E5D80708F060C0C11596E572
:100F6000D90708F070C08C2F0E94BD088F71C82F60
:100F7000D0E0DC2FCC27D06268C0C1152AE5D207AB
:100F800008F451C0CE0190568115904208F05BC024
:100F90008D2F8F710E94BD08DD27D0628F71D82BF5
:100FA00054C0C55AD0E0CC59DE4FC881D0E0D064DF
:100FB0004CC0C85AD0E0CC0FDD1FCA5CDE4F099090
:100FC000D881C02DD46441C00E940907EC013DC006
:100FD000CE019927D3FF03C0EC01D86C36C0EC01D9
:100FE000D06C33C0DF70D06A30C0DC2FCC27C16F2B
:100FF000D06A2BC0C1E0D0E002C0CC0FDD1F2A9523
:10100000E2F720E2829FC0011124C82BD92BDA68B5
:101010001CC0DC2FCC27C46FD06A17C0DC2FCC27B4
:10102000C06FD06A12C08C2F8F700E94BD0894E0F0
:10103000D695C7959A95E1F7CF70D0E0DC2FCC27F5
:10104000D069C82B02C0C0E0D0E0CE01DF91CF91C3
:1010500008958238910569F1B0F48133910509F45E
:101060006DC048F48932910509F463C08A32910554
:1010700009F469C008958533910509F455C0893391
:101080009105B9F00895833E910569F138F4803EE9
:101090009105B1F0823E910509F10895863E9105D2
:1010A000A9F1873E9105B9F1843E910509F064C02C
:1010B00023C02091140320FD4FC021FD4DC0089591
:1010C0008091140380FD44C08091150380FF44C0CB
:1010D0008091140384FD42C083EE4DC080911403BF
:1010E00082FF38C0F5CF8091140382FD33C0809118
:1010F000150380FD31C0ECCF8091150381FF32C014
:101100008091140384FD2AC087EE35C080911403BA
:1011100083FF26C0F5CF8091140383FD21C0809109
:10112000150381FD1FC0ECCF8091140385FD1CC009
:101130001DC08091140385FD19C016C08091140351
:1011400086FD16C017C08091140386FD13C010C021
:1011500089E311C082EE0FC080EE0DC080E00BC0AD
:1011600086EE09C084EE07C089E205C085E303C0AE
:101170008AE201C081E390E008959091140392FF08
:101180000DC0282F2871283019F4877F846006C08D
:10119000282F2471243011F48B7F886093FF0DC0B9
:1011A000282F2871283119F4877E846106C0282FE2
:1011B0002471243111F48B7E88612091150320FF66
:1011C0000DC0382F3871383019F4877F816006C020
:1011D000382F3171313011F48E7F886021FF0DC0BE
:1011E000282F2871283119F4877E816106C0282FA5
:1011F0002171213111F48E7E886194FD877E0895DE
:10120000E82FF0E0EE0FFF1FEC50FD4F8081918141
:101210000895089580EA8A95F1F7089500C0089529
:101220000C940A0908950C9412090C9413090C9457
:1012300012090C941709F894E82FE295EF70F0E08A
:1012400031A1282F2F7081E090E001C0880F2A95EE
:10125000EAF7982F9095932391A392A1892B82A3CB
:10126000789408950F931F93CF93DF9381E90E94A1
:101270001B0985EF0E941B0980E90E941B0984EF6E
:101280000E941B09C7E6D1E003E711E089910E94A3
:101290001B090C171D07D1F71092ED021092EC02FA
:1012A0001092F5021092F4021092EF021092EE02E8
:1012B0001092F7021092F6021092F1021092F002D0
:1012C0001092F9021092F8021092F3021092F202B8
:1012D0001092FB021092FA0284E00E94080ADF9149
:1012E000CF911F910F910C94BE057F928F929F9288
:1012F000AF92BF92CF92DF92EF92FF920F931F9324
:10130000CF93DF930CEE12E083E7E82E81E0F82E16
:10131000C0E0D0E0712CAA24A394B12C4701F701BE
:101320008081F894E82FE295EF70F0E021A18F70B2
:10133000A50102C0440F551F8A95E2F7CA01922FFA
:10134000982B91A392A18095892382A378940E94DF
:101350000E09E7E6F1E020E030E0C12CD12C41910C
:10136000A42FA295AF70B0E090968C9190E04F7052
:1013700002C0959587954A95E2F780FD08C0C501A2
:10138000022E02C0880F991F0A94E2F702C080E083
:1013900090E0C82AD92A2F5F3F4F2C303105F9F64B
:1013A0005FEFE51AF50AF40180810E941B09C33042
:1013B000D10511F00E941009F80180819181C816B1
:1013C000D90621F0D182C08281E001C080E0782A74
:1013D00021960E5F1F4FC430D10509F09FCF272DF6
:1013E00044E064EF72E08CEE92E00E94090A0E94F1
:1013F000C805872DDF91CF911F910F91FF90EF903E
:10140000DF90CF90BF90AF909F908F907F90089586
:101410000895FF920F931F93CF93DF93F82E092F18
:10142000162FD72FC42F222349F081E08093F0019B
:101430000E94B52A9093EF018093EE018091F00114
:101440008823D9F08091EE019091EF010E94CD2A7E
:10145000069798F0EF2DF02FA12FBD2F80E090E0A0
:101460004C2F50E08417950734F4219131912D933E
:101470003D930196F7CF1092F001DF91CF911F912C
:101480000F91FF900895833081F128F4813059F055
:101490008230D1F00895853009F449C0B8F1863022
:1014A00009F456C0089580910B01262F30E0280FD3
:1014B000311D2F3F310524F4680F60930B0108950F
:1014C0008FEF80930B01089580910A01262F30E061
:1014D000280F311D2F3F310524F4680F60930A0156
:1014E00008958FEF80930A01089580910901262FB6
:1014F00030E0280F311D2F3F310524F4680F609331
:10150000090108958FEF80930901089580910801E2
:10151000262F30E0280F311D2F3F310524F4680FAE
:101520006093080108958FEF8093080108958091DA
:101530000501262F30E0280F311D2F3F310524F4FF
:10154000680F6093050108958FEF8093050108955A
:1015500080910401262F30E0280F311D2F3F3105E7
:1015600024F4680F6093040108958FEF80930401C1
:101570000895833011F128F4813049F0823091F0E0
:101580000895853081F120F18630C1F10895809170
:101590000B01681720F4861B80930B0108951092AD
:1015A0000B01089580910A01681720F4861B80932F
:1015B0000A01089510920A0108958091090168179F
:1015C00020F4861B80930901089510920901089563
:1015D00080910801681720F4861B80930801089504
:1015E00010920801089580910501681720F4861B68
:1015F00080930501089510920501089580910401DA
:10160000681720F4861B809304010895109204014A
:1016100008950F931F9341E050E060E070E08A016D
:101620009B0104C0000F111F221F331F8A95D2F7A0
:10163000C901B8010E9432261F910F910C943C22DF
:10164000482F50E0FA013597EF33F10508F067C0F5
:10165000EA5AFF4F0C9439330E9468295CC080918C
:10166000C802817F8E7F8093C80281E08093F2015F
:10167000089580911F0190912001892B09F44BC09E
:101680000E94CB0548C08091C802982F9095917018
:1016900090FB80F98093C80291113DC0897F877FBC
:1016A00010C08091C80281FB222720F991E0922787
:1016B00090FB81F98093C802992369F18091C80257
:1016C00081608093C80227C08091C80282FB2227D4
:1016D00020F991E0922790FB82F9ECCF8091C8022B
:1016E00083FB222720F991E0922790FB83F9E2CF38
:1016F0000E943C228091140387FB222720F991E06D
:10170000922790FB87F98093140305C0895301C089
:101710008D510E94090B81E0089580E0FACF80E0AE
:10172000089580E008950C94910B8E518A3030F426
:10173000E82FF0E0E958FE4F8081089580E0089599
:10174000CF93C82F8091F201813051F018F0823090
:1017500099F17DC00E940828823209F07AC004C045
:101760000E940828823261F48C2F0E94930B811111
:1017700004C08C2F0E94200B1DC081E090E01AC095
:101780008C2F0E94910B811114C0C43179F048F460
:10179000CB3079F0C03109F060C082E08093F20173
:1017A00008C0C93219F0C83321F057C01092F201B5
:1017B00054C081E0817053C0C93289F118F5C43139
:1017C00071F1B0F4C73009F046C08EE180930B018F
:1017D00082E380930A018AE08093090184E1809387
:1017E000080188E08093050188E28093040133C0FA
:1017F00082EE8C0F863078F58C2F0E94950B8093AB
:10180000F10129C0CE34E9F020F4CB3421F56AE0AF
:1018100013C0C13579F0C235F1F461E00DC080919B
:10182000F101882319F01092F10115C081E0809335
:10183000F20115C061E006C08091F1010E94430AE7
:101840000AC06AE08091F1010E94B90A04C01092B6
:10185000F20180E004C081E002C080E0ABCFCF9114
:1018600008958091F90180FF0BC06091090185E026
:10187000689FB001112475956795759567952BC084
:1018800081FF09C06091090185E0689FB0011124C2
:101890007595679520C082FF07C06091090185E0BA
:1018A000689FB001112417C09091F8019923D1F0DD
:1018B00060910801961788F72091090185E0289F1B
:1018C00090011124929FA001939F500D112470E06C
:1018D000CA010E9403336038710540F46115710537
:1018E00019F406C065E070E0862F08958FE708952B
:1018F00081E008958091F90180FF08C060910501A1
:1019000070E0759567957595679521C081FF06C054
:101910006091050170E07595679519C082FF04C05C
:101920006091050170E010C09091F701992399F042
:10193000609104019617A0F780910501899FC0016D
:10194000112470E00E9403336038710540F4611582
:10195000710519F406C061E070E0862F08958FE7E5
:10196000089581E00895803F21F40E94310C819513
:1019700004C0813F29F40E94310C8093FD01089539
:10198000823F21F40E94310C819504C0833F29F4E9
:101990000E94310C8093FC010895893F19F40E9444
:1019A0007A0C05C08A3F31F40E947A0C81958093AD
:1019B000FE0108958B3F21F40E947A0C819504C0AA
:1019C0008C3F29F40E947A0C8093FF010895843F94
:1019D00021F48091FB01816017C0853F21F4809143
:1019E000FB01826011C0863F21F48091FB0184607D
:1019F0000BC0873F21F48091FB01886005C0883FC0
:101A000031F48091FB0180618093FB0108958D3F4B
:101A100021F48091F90181600BC08E3F21F4809107
:101A2000F901826005C08F3F29F48091F90184603B
:101A30008093F9010895803F39F48091FD0187FF7B
:101A40006AC01092FD0167C0813F29F48091FD01B9
:101A50001816BCF360C09091FC01823F29F497FFF7
:101A60005AC01092FC0157C0833F19F41916CCF3E9
:101A700052C09091FE01893F31F419160CF04BC011
:101A80001092FE0148C08A3F19F497FF44C0F8CF76
:101A90008B3F39F48091FF0187FF3DC01092FF0119
:101AA0003AC08C3F29F48091FF011816BCF333C073
:101AB000843F21F48091FB018E7F17C0853F21F484
:101AC0008091FB018D7F11C0863F21F48091FB0145
:101AD0008B7F0BC0873F21F48091FB01877F05C07E
:101AE000883F31F48091FB018F7E8093FB0113C00E
:101AF0008D3F21F48091F9018E7F0BC08E3F21F440
:101B00008091F9018D7F05C08F3F29F48091F90103
:101B10008B7F8093F9018091FC01811106C0809137
:101B2000FD01811102C01092F8018091FE01811126
:101B300006C08091FF01811102C01092F701089543
:101B40000E94B52A2091FC01211104C02091FD01C1
:101B5000222321F09093F6018093F5012091FE015C
:101B6000211104C02091FF01222321F09093F40160
:101B70008093F3018AEF91E00C94921DEF92FF9213
:101B80000F931F93CF93DF9300D000D000D0CDB739
:101B9000DEB786E0EAEFF1E0DE01119601900D92EA
:101BA0008A95E1F7E090FC01F090FD010091FE01C3
:101BB0001091FF011092FC011092FD011092FE01A4
:101BC0001092FF01E11003C0FF2009F45DC0809175
:101BD000F5019091F6010E94CD2AAC019091F80197
:101BE000992339F020910A0130E02417350758F085
:101BF0004BC020910B018AE0289F900111242417EB
:101C0000350718F041C09F3F19F09F5F9093F8018E
:101C1000EE2061F00E94310C1E1414F09FEF01C001
:101C200091E0989F902D11249093FC01FF2061F08A
:101C30000E94310C1F1414F09FEF01C091E0989F97
:101C4000902D11249093FD013091FC013323E1F09C
:101C50002091FD012223C1F045EB3403C001112482
:101C6000992319F09093FC0103C081E08093FC015B
:101C700035EB2303C0011124992319F09093FD0142
:101C800003C081E08093FD01011103C0112309F419
:101C90005DC08091F3019091F4010E94CD2AAC01C6
:101CA0009091F701992339F02091060130E0241733
:101CB000350758F04BC0209107018AE0289F90011A
:101CC00011242417350718F041C09F3F19F09F5F7A
:101CD0009093F701002361F00E947A0C101614F023
:101CE0009FEF01C091E0989F902D11249093FE01E9
:101CF000112361F00E947A0C111614F09FEF01C0BD
:101D000091E0989F902D11249093FF013091FE0156
:101D10003323E1F02091FF012223C1F045EB34038E
:101D2000C0011124992319F09093FE0103C081E0B2
:101D30008093FE0135EB2303C0011124992319F090
:101D40009093FF0103C081E08093FF018091FC012B
:101D500081110BC08091FD01811107C08091FE01AE
:101D6000811103C08091FF0181110E94A00DEB82BF
:101D7000FC820D831E8386E0FE013196AAEFB1E05E
:101D800001900D928A95E1F726960FB6F894DEBF82
:101D90000FBECDBFDF91CF911F910F91FF90EF90BC
:101DA0000895EAEFF1E086E0DF011D928A95E9F7F8
:101DB0001092F8011092F7011092F9010895EF9234
:101DC000FF920F931F93CF93DF938B01682F111115
:101DD0000AC0442329F0E82FF0E0E451FB4F64915E
:101DE000762F862F75C0212F30E0E82FF0E04423B6
:101DF00021F0E451FB4FE491F0E046E0049FC00184
:101E00001124CFEFD0E0BE010E94EF324BEA46032F
:101E1000C001479F900D1124800F911D800F911DCF
:101E2000982F990F890FAE01421B530B4E9FD00183
:101E30004F9FB00D5E9FB00D11249B2F189FA001E6
:101E40001124452F55278E01041B150B0E9FA00151
:101E50000F9F500D1E9F500D11247E01E81AF108AE
:101E6000E29E8001E39E100DF29E100D1124212FA1
:101E70003327C21BD30BCE9F9001CF9F300DDE9F27
:101E8000300D112462307105A9F048F46115710517
:101E900069F061307105C9F48B2F752F0DC0643066
:101EA000710581F058F06630710579F47E2F8B2F23
:101EB000932F0DC0832F7B2F9E2F09C08E2F7B2F3A
:101EC000952F05C08E2F732F02C07E2F852F692F6F
:101ED000DF91CF911F910F91FF90EF90089541E016
:101EE0000E94DF0E089508950E946F0F0895CF930A
:101EF000DF93762FE901682F842F0E94740F798376
:101F000068838A83DF91CF9108958091FC02282F06
:101F1000269530E02115310519F48170826005C0E5
:101F20002B32310524F0817084658093FC02089582
:101F300088E090E00C94F833CF92DF92EF92FF921A
:101F40006B017C010E94850FB701A60188E090E03B
:101F5000FF90EF90DF90CF900C9416346091FC02CC
:101F60007091FD028091FE029091FF020C949C0FF3
:101F7000ECEFF2E083E0808311828FEF8283838332
:101F8000148260817181828193810C949C0F809175
:101F9000FC0280FF02C08695089580E0089590912C
:101FA0000003933018F49F5F90930003882351F04F
:101FB0006091FC027091FD028091FE029091FF02FF
:101FC0000C949C0F089581E00C94CF0F9091000326
:101FD000992319F0915090930003882351F0609158
:101FE000FC027091FD028091FE029091FF020C9420
:101FF0009C0F089581E00C94E60F809100030895F2
:1020000080930003662351F06091FC027091FD0201
:102010008091FE029091FF020C949C0F089560E065
:102020000C9400108091FD0208958091FE020895A5
:102030008091FF02089570E00C94AB16609110013E
:102040008091FC0280FF0AC080910F0123E0829FF3
:10205000C00111248F5F9C4F0C941B1080911101C3
:1020600090911201891780F7E82FF0E09F01220F6D
:10207000331FE20FF31FEF5FFC4F118210821282B9
:102080008F5FF0CF9091FC0290FF16C090911101EC
:1020900020911201921770F4E92FF0E0DF01AA0FEE
:1020A000BB1FEA0FFB1FEF5FFC4F818360834283FE
:1020B0009F5FF0CF0C941E100895CF93DF9300D054
:1020C0001F92CDB7DEB79091FC0290FF0AC09E012F
:1020D0002F5F3F4F0E94770F4B8169818A810E9459
:1020E00042100F900F900F90DF91CF910895CF93F2
:1020F000DF93EC01EC81F0E0E951FC4F4491ECEF0F
:10210000F2E0628181810E945D108C818F5F8C83FF
:10211000DF91CF910895CF93DF93EC01ECEFF2E0E4
:10212000438162818C810E945D108C818F5F8C83E2
:10213000DF91CF9108950F931F93CF93DF9300D03A
:102140001F92CDB7DEB78C018091000281110AC0C9
:102150009E012F5F3F4F4FEF6FEF0E94770F8A81F5
:1021600080930002F8018481813051F028F08230A0
:1021700061F4409100020AC08091000240E007C073
:102180006091000240E080E003C040E080E060E059
:102190000E944210F801848190E0019663E070E0B3
:1021A0000E94033384830F900F900F90DF91CF91A3
:1021B0001F910F910895AF92BF92CF92DF92EF924D
:1021C000FF920F931F93CF93DF9300D01F92CDB751
:1021D000DEB7182FF62E042FE22E9091FC0290FF0E
:1021E0006DC0E92FE695AE2FB0E0AF57BE4F8C9192
:1021F000809323029E7F923061F49E012F5F3F4FB8
:10220000812F0E94770F4B8169818A810E94421041
:1022100043C0823019F40091FF023EC0863019F4A9
:102220001091FD0239C08930D9F38931A9F5E951FE
:102230008E2F8170D82EE695F0E0E951FB4FA590E6
:10224000B490C12CBB2460911301C61618F52C2D37
:1022500030E0A29EC001A39E900DB29E900D11246D
:1022600070E00E94EF32812FD11002C0860F01C0B2
:10227000861B90911101290F311DA901440F551F93
:10228000240F351F2F5F3C4F402F6F2D0E94770F7B
:10229000C394D9CF0E941E101093FD02F092FE024B
:1022A0000093FF02EE2051F06091FC027091FD025C
:1022B0008091FE029091FF020E949C0F0F900F9060
:1022C0000F90DF91CF911F910F91FF90EF90DF90D2
:1022D000CF90BF90AF900895ECEFF2E09181282F5E
:1022E0004381628188E0890F0C94DB1081E00C94BB
:1022F0006C11ECEFF2E09181282F4381628188EF2D
:10230000890F0C94DB1081E00C947911ECEFF2E072
:10231000628121E1620F08F46FEF282F43818181F0
:102320000C94DB1081E00C948611ECEFF2E06281FA
:1023300021E1621B08F460E0282F438181810C9425
:10234000DB1081E00C949511ECEFF2E0438121E188
:10235000420F08F44FEF282F628181810C94DB102B
:1023600081E00C94A411ECEFF2E0438121E1421BE7
:1023700008F440E0282F628181810C94DB1081E019
:102380000C94B31120E00C94DB10FF920F931F9379
:10239000CF93DF93EC01F12C0FEF10E0609113016C
:1023A000F616F0F4809111012F2D30E0280F311D29
:1023B000C901880F991F280F391F2F5F3C4F70E00C
:1023C000C8010E940333962F8C814091FF026091D7
:1023D000FE02F99E800D11240E94770FF394DECF48
:1023E0000E941E109A818C8190FF02C08F5F01C0F5
:1023F00081508C83DF91CF911F910F91FF900895B1
:10240000AF92BF92CF92DF92EF92FF920F931F9302
:10241000CF93DF93FC01828180FF02C00FEF01C0E8
:1024200001E010E045E0A42E80911301181708F098
:1024300043C080911101C12ED12CE601C80FD11DDE
:10244000CE01880F991FC80FD91FCF5FDC4F1982AB
:1024500018821A8234E0E32EF12CB12C8091020212
:102460008B0D86302CF06A2D0E94E132892F05C039
:1024700087FF03C090911301890F082E000C990B60
:10248000C816D90691F48091FF028E9DA0018F9D00
:10249000500D112455954795559547959E0160918E
:1024A000FE028091FD020E94770FB00EF1E0EF1A5C
:1024B000F108A1F61F5FB8CF0E941E1080910202A2
:1024C000013031F4811102C080911301815007C0A5
:1024D00090E001966091130170E00E9403338093B5
:1024E0000202DF91CF911F910F91FF90EF90DF904B
:1024F000CF90BF90AF900895CF93809111019091AC
:102500001201891770F4E82FF0E09F01220F331FAA
:10251000E20FF31FEF5FFC4F1182108212828F5F78
:10252000F0CFC0E060911301C617C0F5EC2FF0E0CA
:1025300070E0CF010E94033320911101820F20919E
:102540000102022E000C330B90E0E217F307CCF0EF
:1025500020910E01022E000C330B2E173F078CF03A
:102560009C01220F331F820F931F9C012F5F3C4F52
:102570004091FF026091FE028091FD020E94770F60
:102580000BC0FC01EE0FFF1F8E0F9F1FFC01EF5FC2
:10259000FC4F118210821282CF5FC4CF0E941E10A6
:1025A00020910D0180910102820F80930102909190
:1025B0000E01920F90930E0119165CF4082E000C78
:1025C000990B4091130150E0415051098417950730
:1025D0001CF0219520930D01CF9108958F929F9229
:1025E000AF92BF92CF92DF92EF92FF920F931F9321
:1025F000CF93DF938C01FC014481C42FD0E09E0176
:10260000DE010E944E339B01AC010E9464336B01DA
:102610007C01E0E2F0E0EC1BFD0BA5E5B0E09B01E6
:10262000AC010E9464334B015C019F01DF010E94F9
:1026300046339B01AC010E946F339B01AC012C0D12
:102640003D1D4E1D5F1DC501B4010E941733C22FF1
:10265000D22F2A3228F4F3E02F9F900111240DC0CD
:1026600025E530E02C1B3109C901880F991F280F7F
:10267000391F37FF02C02F5F3F4F35952795C22F77
:10268000C095F12C85E5E82EED1A80911301F8161E
:10269000C8F4F1FC02C08E2D01C08D2F9091110164
:1026A0002F2D30E0290F311DA901440F551F240F94
:1026B000351F2F5F3C4F4C2F6091FE020E94770F19
:1026C000F394E3CF0E941E10F8018481811102C0AF
:1026D00091E003C0803219F49FEF90930C01909128
:1026E0000C01890FF8018483DF91CF911F910F9125
:1026F000FF90EF90DF90CF90BF90AF909F908F9022
:1027000008950F931F93CF93DF93EC0100E010E047
:1027100080911301282F30E00217130724F59091C0
:1027200011019801290F311DA901440F551F240FD4
:10273000351F2F5F3C4F869590E04C810817190795
:102740001CF4442331F002C0411103C04091FF0248
:1027500001C040E06091FE028091FD020E94770F6F
:102760000F5F1F4FD5CF0E941E108C8190E0019605
:10277000817099278C83DF91CF911F910F910895DC
:102780007F928F929F92AF92BF92CF92DF92EF9201
:10279000FF920F931F93CF93DF93FC01828074808D
:1027A00081E08483E7EEF3E09490E6E6F4E0E491E0
:1027B000A12CF5E0BF2ECC24CA94D12CE9190E2F00
:1027C00010E080911301A81608F0A2C0EA2CF12CA9
:1027D00022E0281568F0BE9CF001BF9CF00D11248A
:1027E000ED5FFD4F8091FD0280838091FE02818329
:1027F00071100AC0BE9CF001BF9CF00D1124ED5F6A
:10280000FD4F138212826AC0BE9CE001BF9CD00DB6
:102810001124CD5FDD4F8B818823F9F081508B83AC
:102820002FEF829FC00111246C8170E00E94EF3273
:10283000FB01FF27E951FC4F8491E82FE9192FEFA5
:10284000E29FC0011124B8010E94EF328091FF0283
:10285000689FB00111247A8341C00E94C333209144
:10286000FF022695215830E0A901440F551F322F51
:102870002227240F351F232F33278217930774F540
:1028800082E0881588F40E94C333B6010E940333A6
:1028900088830E94C3332091FE022695622F70E048
:1028A0000E940333280F2983BE9CF001BF9CF00DCA
:1028B0001124ED5FFD4F12828091FF02843120F0E0
:1028C000893C18F088EC01C084E1BE9CF001BF9CFB
:1028D000F00D1124ED5FFD4F8483838380911101FE
:1028E0009701280F311DC901880F991F280F391F23
:1028F0002F5F3C4FBE9CF001BF9CF00D1124ED5F9B
:10290000FD4F4281618180810E94770FA39459CF4E
:10291000DF91CF911F910F91FF90EF90DF90CF90BB
:10292000BF90AF909F908F907F900C941E10ECEF13
:10293000F2E080818E7F80836081718182819381CA
:102940000E949C0F109224022FEF80E792E021500A
:1029500080409040E1F700C000000C941E10ECEFA6
:10296000F2E080818E7F8083109224022FEF80E737
:1029700092E0215080409040E1F700C000000C94AC
:102980001E106091FC02669570E04BE050E084E11F
:1029900091E00E94DC33892B19F481E080932402BA
:1029A0000E94B52A90931D0280931C020895909175
:1029B000FC0290FF35C09170811102C0926006C088
:1029C0008B3210F0946502C0880F982B9093FC0214
:1029D000662351F06091FC027091FD028091FE022D
:1029E0009091FF020E949C0F6091FC02669570E03E
:1029F0004BE050E084E191E00E94DC33892B19F038
:102A00001092240202C00E94C11481E080931F0230
:102A10004091FF026091FE028091FD020C94C21170
:102A20000895682F9091FC02969581E0890F8B3272
:102A300008F081E00C94D71481E00C941115682FF4
:102A40009091FC0296958FEF890F09F48AE20C941D
:102A5000D71481E00C941F1561E00C94D714ECEFAF
:102A6000F2E080818160808386950C942C158091A2
:102A7000FC0280FD0C9497140C942F1560E00C94CC
:102A8000D7148091220281112EC00E94C128811189
:102A900004C00E9468290E94B80F0E94980F60939A
:102AA000FC027093FD028093FE029093FF026E7F02
:102AB00061F40E94B80F0E94980F6093FC0270931B
:102AC000FD028093FE029093FF020E94850F1092F8
:102AD00024028091FC0280FF03C086950E943E156F
:102AE00081E0809322020895ECEFF2E08081816022
:102AF000808386950C943E150F931F93CF93DF939D
:102B000080912402882309F495C080912302E091EA
:102B1000FC02E695E81BE0931E02823049F4F0E0E7
:102B2000ED51FC4FE491CE2FD0E007E710E159C002
:102B3000863049F4F0E0E052FC4FE491CE2FD0E033
:102B40000BE810E14EC0893051F4E695F0E0EE5DFF
:102B5000FC4FE491CE2FD0E005EC11E142C08F3064
:102B600051F4E695F0E0E352FC4FE491CE2FD0E033
:102B700000E012E136C0853149F4F0E0E652FC4F46
:102B8000E491CE2FD0E00CE712E12BC08831D9F0D0
:102B9000833239F4E8EDF3E0C591D4910BE910E10B
:102BA00020C08432A9F08532C1F48E2F63E00E94E8
:102BB000D532E92FF0E0EB52FC4FE491CE2FD0E07C
:102BC00000EC13E10EC0C8E2D0E00EEE12E109C045
:102BD000C4EFD1E001E813E104C0C0EDD7E003E7A2
:102BE0001FE080911F02882361F010921F020E9453
:102BF000B52A90931D0280931C021092210210921C
:102C000020020E94B52AE0911C02F0911D028E1B49
:102C10009F0B8F3F9F4770F4EC0FFD1FF0931D0239
:102C2000E0931C028CE192E0F801DF91CF911F91BB
:102C30000F910994DF91CF911F910F9108958823EF
:102C400011F0FA0101C0FB010994CF93DF93C82F63
:102C5000D62F0E94C70F8C1740F00E94C70F8D1708
:102C600020F4DF91CF910C941C158C2FDF91CF9124
:102C70000C942C150F931F93CF93FB01C281CC238F
:102C800009F463C08C010E9408288272F801E25C9A
:102C9000FC45E431F10508F059C0EB56FF4F0C94A8
:102CA00039330E94371506C049E255E16CE175E100
:102CB0000E941F16C0E04AC04CE155E169E275E18F
:102CC000F7CF43E851E166E771E1F2CF46E751E122
:102CD00063E871E1EDCF41EA51E162E971E1E8CFEA
:102CE00042E951E161EA71E1E3CF4FEB51E160EB81
:102CF00071E1DECF40EB51E16FEB71E1D9CF4AEFEB
:102D00005FE063EE7FE0D4CF43EE5FE06AEF7FE009
:102D1000CFCF81E017C065E082E010C068E086E0B8
:102D20000DC06EE089E00AC064E18FE007C067E192
:102D300085E104C088E106C062E289E10E942516AF
:102D4000B9CF83E20E942C15B5CFC1E08C2FCF9173
:102D50001F910F910895539A2BB1277F3BB1386093
:102D60004FB7F894FC01CB01880F991F680F791FAA
:102D70006E0F7F1FE617F70789F0819198E03BB946
:102D8000000000C087FF2BB9880F000000C000C002
:102D900000C02BB900C09A9591F7ECCF4FBF8FE5DB
:102DA00094E00197F1F700C00000089582E290E0FE
:102DB0000E94F033893581F483E290E00E94F03381
:102DC000803651F484E290E00E94F03391E0883242
:102DD00009F090E0892F01C080E081700895CF93C1
:102DE000C82F811102C06FEF01C069E582E290E057
:102DF0000E940434C11102C06FEF01C060E683E29B
:102E000090E00E940434C11102C06FEF01C068E27B
:102E100084E290E0CF910C94043480E00E94EF169D
:102E20000C94BB28089585E290E00E94F033682F4F
:102E300070E080E090E0089585E290E00C94043426
:102E40000E9412170E94D61681110CC060E070E03B
:102E5000CB010E941C170E94DB190E94DE1A81E040
:102E60000C94EF160895CF93FB01C281CC23E9F0B7
:102E70009C0122513F452031310520F482510E94AE
:102E8000EE1A0CC08031FFE59F0751F481E00E94EB
:102E9000922643E062E081E00E94AC05C0E018C0E9
:102EA00081319F45A9F482E0F2CF8031EFE59E07A2
:102EB00011F481E004C081319F4549F482E00E9411
:102EC000B32643E062E081E00E94AC0501C0C1E0AE
:102ED0008C2FCF9108952FEFFC0120830895CF937D
:102EE000DF93EC018881813889F028F48038A1F4DF
:102EF0000E94181010C0823861F0833869F40E9473
:102F0000121089830E9415108A8306C00E94C70F81
:102F100002C00E94FD0F8983DF91CF910895CF9366
:102F2000DF93EC0188818138B1F058F4803851F595
:102F3000D9810E941510C82F0E9412104D2F6C2F9E
:102F40001DC08238B1F08338E9F40E941810482F70
:102F50006A81898113C089810E943E15898181110E
:102F600004C0DF91CF910C94AF14DF91CF910C94FA
:102F700074158981DF91CF910C940F10DF91CF915F
:102F80000C94C211DF91CF9108951F93CF93DF93DB
:102F9000EC01162F20912702309128029881232BD3
:102FA00051F09E3F09F0E5C08981833020F08550C3
:102FB000833008F0DEC09E012F5F3F4F993009F447
:102FC00080C0E8F4943009F462C050F49230E1F12A
:102FD00008F04CC0913009F0CAC0198289E077C06E
:102FE000963009F467C008F45AC0973009F465C0F8
:102FF000983009F0BCC0C9010E946F17BAC0903167
:1030000009F48EC088F49D3009F45EC030F49C3021
:1030100009F0ADC00E94911A88C09E3009F459C0D1
:103020009F3009F467C0A3C0923109F480C008F44E
:103030007AC0933109F48BC09E3F09F098C0612F8C
:10304000CE010E94C01895C08981823041F0833042
:1030500009F48FC08130B1F40E94C12A02C00E94DD
:1030600013179A838B837C836D8383C0898182301D
:1030700049F46A817B818C819D810E943F330E944B
:103080001C1777C0612FCE010E946B1772C04B8155
:103090006A8189810E9491199C838D836AC02C81E9
:1030A0003D813227232732274B816A8189810E9403
:1030B000B2195FC00E94DB195CC0C9010E948F1762
:1030C00058C00E94AE0F55C00E94931A99838A83FC
:1030D00050C089819A819827892798276B8170E051
:1030E0006D31710508F045C0AE014C5F5F4F0E9425
:1030F000961A3FC080911F0190912001892BC9F140
:1031000089819A819827892798276B8170E06D3192
:10311000710578F5AE014C5F5F4F0E94BB1A29C064
:103120000E94DE1A26C00E947E19898322C08981EE
:103130009A819827892798276B8170E06D317105F6
:10314000C0F4AE014C5F5F4F0E942C1A12C08981FF
:103150009A819827892798276B8170E06D317105D6
:1031600040F4AE014C5F5F4F0E94501A02C08FEFD7
:103170008883612FCE01DF91CF911F910C94ED2BAD
:103180000F931F93CF93DF93CDB7DEB728970FB67A
:10319000F894DEBF0FBECDBF603209F0A4C0FC01C1
:1031A00021812230F1F160F4222311F1213009F064
:1031B0009AC030EBFC01308321831282138293C0CA
:1031C000263009F46EC0273009F483C0253009F099
:1031D0008AC08C0140E250E06FEF70E00E94E9335A
:1031E00080911F01F80180838091270281837BC039
:1031F00028E0EEE2F1E0DE01119601900D922A95B1
:10320000E1F721E0FC01208311821282138228E081
:10321000FE013196DC01149601900D922A95E1F79A
:1032200062C0FC01038110E0102F00272281020FF1
:10323000111D012E000C220B330B45E0000F111F56
:10324000221F331F4A95D1F7B901A801405E5F4F95
:103250006F4F7F4F401751076207730708F443C051
:10326000003BF1E01F0721053105E8F5413BE1E0B6
:103270005E076105710520F040EB51E060E070E011
:10328000401B510BB80164517A4F28960FB6F89441
:10329000DEBF0FBECDBFDF91CF911F910F910C9478
:1032A000D33381E090E0909328028093270282E359
:1032B00090E0909326028093250228960FB6F8940A
:1032C000DEBF0FBECDBFDF91CF911F910F910C9448
:1032D000B52A20911F01FC01208320912702218320
:1032E00020912502228328960FB6F894DEBF0FBEE8
:1032F000CDBFDF91CF911F910F91089584E0089584
:1033000050E0440F551F28E1629F400D511D1124CC
:103310009A0160E6869F200D311D1124C901869611
:1033200008950F931F93CF93DF938430A0F46430FC
:1033300090F44C3080F40E9480198C010E94F0338C
:1033400090E0D82FCC27C80101960E94F0339E014F
:10335000282BC90102C080E090E0DF91CF911F913E
:103360000F9108950F931F93CF93DF938430F0F460
:103370006430E0F44C30D0F421159CE5390731F489
:10338000E0911F01F0912001EF2B81F0E9010E94F3
:1033900080198C016D2F0E9404346C2FC801019696
:1033A000DF91CF911F910F910C940434DF91CF9155
:1033B0001F910F9108958F929F92AF92BF92CF92DB
:1033C000DF92EF92FF920F931F93CF93DF93C09002
:1033D0001F01D090200181E090E090932001809324
:1033E0001F01812CE12CF12C912C00E010E0C0E0B9
:1033F000D0E05701A00EB11EFE01EE0FFF1FEA0D37
:10340000FB1DEE55FE4F259134914C2F692D882DD3
:103410000E94B2192196CC30D10571F7085E1F4F7A
:10342000939484E09812E3CF80E6E80EF11C839435
:1034300084E08812D9CFD0922001C0921F01DF9181
:10344000CF911F910F91FF90EF90DF90CF90BF90A1
:10345000AF909F908F900895EF92FF920F931F93DC
:10346000CF93DF93EA017A01E60EF71E8C01C801C3
:103470008696CE15DF0569F0003821E0120720F4AA
:103480000E94F033888301C0188221960F5F1F4F7E
:10349000EECFDF91CF911F910F91FF90EF900895A4
:1034A000EF92FF920F931F93CF93DF938A0180389F
:1034B00021E09207E0F420E831E0281B390B2617C1
:1034C0003707A8F07A01E60EF71EEC01CE018696CA
:1034D0000E151F0561F0C038E1E0DE0720F4F801A9
:1034E00060810E9404340F5F1F4F2196EFCFDF9160
:1034F000CF911F910F91FF90EF900895462F20914B
:10350000270230912802232B49F4843038F4743098
:1035100028F46C3018F4672F0C94911980E090E037
:10352000089580E108958AE592E00895EF92FF9270
:103530000F931F93CF93DF93EA017A01E60EF71EF4
:103540008C01C8018A559E4FCE15DF0569F00A35FA
:1035500022E0120720F40E94F033888301C0188211
:1035600021960F5F1F4FEDCFDF91CF911F910F91EC
:10357000FF90EF900895EF92FF920F931F93CF93D8
:10358000DF93EA017A01E60EF71E8C01C8018A5525
:103590009E4FCE15DF0559F00A3522E0120718F4C8
:1035A00068810E94043421960F5F1F4FEFCFDF9197
:1035B000CF911F910F91FF90EF900895CF93DF93DC
:1035C000C6EAD1E060E0CE010E9404342196C11524
:1035D00084E0D807B9F7DF91CF910895DF92EF9299
:1035E000FF920F931F93CF93DF9300D000D0CDB7FE
:1035F000DEB7F82E8FE08F15E8F18FEF93E00E9491
:10360000F033811137C006EA11E0FF2069F001159F
:1036100084E0180779F1C8010E94F033811101C0DC
:10362000FA940F5F1F4FF1CF19821A821B821C82FE
:10363000DD24D39478018FEFE81AF80AC8010E94BC
:10364000F03389831A828823A9F09FEF980F933073
:1036500058F48A83D9820E5F1F4FC7010E94F0334E
:103660008B83882339F07801CE0101960E94F206FF
:103670008701E0CF0F900F900F900F90DF91CF91C7
:103680001F910F91FF90EF90DF9008950F931F937C
:10369000CF93DF93C42FD22FFC0182818823C9F0FE
:1036A00040932B020E94B52A90932A02809329020C
:1036B00080E28C0F883008F057C0C77081E001C0ED
:1036C000880FCA95EAF7DF91CF911F910F910C9463
:1036D000B21F80912B02481330C080912902909133
:1036E0002A020E94CD2A883C910538F510E21D0F70
:1036F000CD17B9F080E28C0F883040F4C77081E0BC
:1037000001C0880FCA95EAF70E94B91F183028F542
:1037100081E09D2F977001C0880F9A95EAF70E946B
:10372000B21F802F0E94A91F1830F0F4D77081E0DB
:1037300001C0880FDA95EAF70AC080E28C0F883062
:1037400098F4C77081E001C0880FCA95EAF7DF914D
:10375000CF911F910F910C94B91F802FDF91CF91C2
:103760001F910F910C94A91FDF91CF911F910F9181
:1037700008950F939C01CB01233F4CE5340731F1B1
:1037800088F4283DFCE53F07D9F0293D4CE5340796
:1037900079F1273D3C45A9F506E221EE41EE67EDC2
:1037A0007CE52BC0253FFCE53F07E1F0A8F0263F74
:1037B0003C4539F507E225EE46EE66EF7CE51DC097
:1037C00007E225EE45EE68ED7CE517C006E221EE46
:1037D00040EE63EF7CE511C007E225EE44EE64EFB6
:1037E0007CE50BC006E221EE42EE65EF7CE505C00C
:1037F00008E221E045EE69ED7CE50E94461B80E091
:1038000008C0FC018281882319F010922B0201C0AC
:1038100081E00F910895CF93DF93EC01FB0182814A
:10382000882309F41FC1C230FCE5DF0708F41BC17F
:10383000C6319CE5D90738F09E012A5F3C45293006
:10384000310508F010C10E94D4289093150380938D
:103850001403C031ECE5DE0709F4C3C008F041C031
:10386000C8308CE5D80709F49AC0F0F4C430ECE510
:10387000DE0709F487C068F4C2308CE5D80709F484
:1038800077C0C330DC4509F0E3C080911403826047
:1038900076C0C630ECE5DE0709F46EC008F07BC0E8
:1038A0008091140388606BC0CC308CE5D80709F494
:1038B00085C068F4CA30ECE5DE0709F474C008F08E
:1038C00079C00E943C2280911403806858C0CE3099
:1038D0008CE5D80709F476C008F07FC08091140306
:1038E0008BC0CB3FECE5DE0709F44FC018F5C331C0
:1038F0008CE5D80709F47DC078F4C131ECE5DE072A
:1039000009F473C0C231DC4509F0A2C00E943C2218
:10391000809114038F7733C0C5318CE5D80709F443
:1039200072C008F486C0CA3FDC4509F091C080919E
:1039300015033EC0CF3FFCE5DF0709F45FC058F434
:10394000CD3F9CE5D90709F444C008F43FC08091FD
:10395000150382602DC0C130FDE5DF0709F475C095
:1039600008F45DC0C230DD4509F072C080E06EC071
:1039700080911403816003C080911403806180935F
:10398000140366C08091140311C0809115038260F6
:10399000809315035DC0809114038062F0CF809105
:1039A00014038064ECCF8091140388608460E7CFB7
:1039B0008160EECF809114038E7FE1CF809114035C
:1039C0008D7FDDCF80911403877FD9CF8091150340
:1039D00018C0809115038D7FDBCF809114038F7EFB
:1039E000CECF809114038F7DCACF809114038F7B3B
:1039F000C6CF80911403877F8B7FC1CF8091150341
:103A00008D7F8E7FC5CF8091140382FB222720F902
:103A100091E0922790FB82F990FB83F9B0CF8091DF
:103A20001503982F909591708E7F892B90FB81F9CB
:103A3000AFCF0E943C228091140387FB222720F9FC
:103A400091E0922790FB87F99ACF81E00E946A2942
:103A500080911403909115030E94E5280E943C2256
:103A600080E001C081E0DF91CF910895CF93DF9393
:103A700086319C4541F5EB010E940828982F8A81E8
:103A80002091210130912201882379F09A7A81E0F6
:103A900009F480E080932C02911102C069E201C018
:103AA00065E3C9010E94052A0AC080912C02811198
:103AB00002C069E201C065E3C9010E94102A0E94A8
:103AC000562880E001C081E0DF91CF910895909366
:103AD0003202809331020895E0913102F091320276
:103AE000309721F00190F081E02D099480E0089555
:103AF000E0913102F0913202309799F020912D013E
:103B0000222359F02091140327FF07C0DC012C91D8
:103B100011962C93119725E02C930280F381E02DD0
:103B200009940895E0913102F0913202309739F012
:103B300022E0DC012C930480F581E02D09940895A6
:103B400020912F02309130022817390771F090939D
:103B5000300280932F02E0913102F09132023097CF
:103B600021F00680F781E02D0994089520912D021F
:103B700030912E022817390771F090932E0280930E
:103B80002D02E0913102F0913202309721F0008451
:103B9000F185E02D099408950E94C12A60934002A6
:103BA00070934102809342029093430260933C02DF
:103BB00070933D0280933E0290933F02089585B733
:103BC000806885BF85B7806885BF089581E00895C6
:103BD0000C94E61D08950C94EA1D0C94EA1D0C94B7
:103BE000ED1D0C94EA1D0C94F11D0C94EA1D0E942D
:103BF000DF1D89EB98E20E94132B0E94F51D0C94A7
:103C0000F31D0E94AC2A0E9432090E9420170E94D4
:103C10002E2B0E9441150C94EF1D6F927F928F9274
:103C20009F92AF92BF92CF92DF92EF92FF920F934B
:103C30001F93CF93DF93CDB7DEB72A970FB6F894D3
:103C4000DEBF0FBECDBF0E94EB1D0E94EA1D0E9489
:103C5000750981110E94CC1D34E3832E32E0932E2E
:103C600000E010E0C02E802F0E9400095C01F401EA
:103C7000619071904F016826792661147104B1F446
:103C80000F5F1F4F0430110569F78FEF89838A8317
:103C90001B820E94B52A8160782F9D838C83498185
:103CA0005A816B818D810E94C91E3AC08091C802E1
:103CB00081FD0E940909D12CEE24E394F12CC3016B
:103CC0008E219F21892B29F10E94E81D8823A9F0CC
:103CD000DE82CF82AE20BF2081E0AB2809F480E0F5
:103CE00088870E94B52A8160782F9A8789874E81BC
:103CF0005F8168858A850E94C91E000F111FF80127
:103D0000EC5CFD4F80819181E826F926F182E0820A
:103D100007C0D394EE0CFF1CFCE0DF12D0CFB0CF75
:103D20000E947C150E94BE0D0E946C1D9091330272
:103D30008917D1F00E946C1D809333022A960FB62A
:103D4000F894DEBF0FBECDBFDF91CF911F910F91D1
:103D5000FF90EF90DF90CF90BF90AF909F908F90AB
:103D60007F906F900C94FC062A960FB6F894DEBFF5
:103D70000FBECDBFDF91CF911F910F91FF90EF90BC
:103D8000DF90CF90BF90AF909F908F907F906F907B
:103D90000895DF92EF92FF920F931F93CF93DF93DB
:103DA000CDB7DEB72B970FB6F894DEBF0FBECDBFF1
:103DB000F42E052F162FE72ED82E61110E942828E9
:103DC000FE01319686E0DF011D928A95E9F77E2D8E
:103DD0004F2D502F612F8D2D9E810E94F5242B9603
:103DE0000FB6F894DEBF0FBECDBFDF91CF911F910C
:103DF0000F91FF90EF90DF900895FC0180819181F9
:103E00000E94C9270895CF93882309F455C0C82F6D
:103E10008CEF8C0F813AF8F48C2F0E94A00B81114B
:103E20004BC06C2F80912101909122010E94852925
:103E3000882349F06C2F80912101909122010E94EA
:103E4000102A0E9456286C2F809121019091220106
:103E50000E94052A0CC080E28C0F883058F4C7708D
:103E600081E001C0880FCA95EAF70E940B28CF9124
:103E70000C945628EBE5EC0FE33040F4F0E0E6520A
:103E8000FE4F808190E0CF910C94A01DE8E5EC0FEF
:103E9000E73150F4F0E0EE0FFF1FE455FE4F808154
:103EA0009181CF910C94B61DC03F30F08C2F0E94B1
:103EB000B30CCF910C94A00DCF910895882389F174
:103EC0009CEF980F913A40F4682F809121019091D6
:103ED00022010E94102A0DC090E2980F983058F4E9
:103EE000877091E001C0990F8A95EAF7892F0E94A7
:103EF00011280C9456289BE5980F933020F480E00D
:103F000090E00C94A01D98E5980F973120F480E084
:103F100090E00C94B61D803F20F00E941B0D0C9485
:103F2000A00D08951F93CF93DF93182FEB010E94EC
:103F3000031F209741F08FE99FE00197F1F700C040
:103F400000002197F6CF812FDF91CF911F910C9424
:103F50005E1F893319F060E070E002C060E570E038
:103F60000C94921F882321F00E940B280C94562851
:103F70000895882321F00E9411280C945628089552
:103F8000CF92DF92EF92FF920F931F93CF93DF9325
:103F90007C01062FC72FFC01D281158112951F705D
:103FA0000E940128882399F0DD2389F08C2F807FDF
:103FB000803421F080E2800F883048F082E00E9457
:103FC000A0280E94012891E0D82ED92601C0D12C2A
:103FD000CC2EC2948FE0C8228C2D90E0FC01E755D6
:103FE000FF4F0C9439338C2F807FCF70882311F0D2
:103FF000C295C07FDD2399F0CC2309F48BC180E208
:10400000800F883010F0011104C08C2F0E940B2803
:1040100003C08C2F0E941B280E9456287BC1802F32
:104020000E945E1FCC2309F499C180E2800F883082
:1040300010F0011104C08C2F0E94112803C08C2F96
:104040000E9421280E94562889C18C2F807FCF7022
:10405000803211F0C295C07F002319F00130C9F001
:1040600022C0DD2371F0112341F0113031F40E94A0
:104070003B288C2B0E94432871C10E943B288C2B2B
:10408000F6C0112319F0113009F468C10E944C28C0
:1040900023C0DD2321F0163008F060C10EC01530BA
:1040A00008F05CC119C0DD2351F0112331F0F70194
:1040B000858180FF2FC18F7085838C2FD8C01123FD
:1040C00059F0093309F037C1FFEF27EE83E0F150D3
:1040D00020408040E1F72DC18C2F0E94B91F3EC1C6
:1040E0008C2F86958695837019F0813061F036C1EA
:1040F000DD2321F0802F9C2F937002C080E090E0A0
:104100000E94A01D2BC1DD2321F0802F9C2F9370D6
:1041100002C080E090E00E94B61D20C1802FDD2308
:1041200029F00E94B30C0E94A00D02C00E941B0D3A
:104130000E94A00D13C18C2F837009F045C0D111CE
:1041400011C1402F429546954770440F440F602F90
:104150006F70862F90E0A0E0B0E0042E04C0880FBE
:10416000991FAA1FBB1F0A94D2F704FF10C00FE0CB
:1041700010E020E030E004C0000F111F221F331FA9
:104180004A95D2F7009510952095309503C000E030
:1041900010E09801C695C695C370BC01CD01602B97
:1041A000712B822B932BC23049F058F4C13019F097
:1041B0000E944626D3C00E943426D0C00E945826B2
:1041C000CDC00E943226CAC0DD2319F08C2F817029
:1041D00001C08695882309F4C5C0402F42954695B5
:1041E0004770440F440F602F6F70862F90E0A0E05F
:1041F000B0E0042E04C0880F991FAA1FBB1F0A94A9
:10420000D2F704FF10C00FE010E020E030E004C05F
:10421000000F111F221F331F4A95D2F700951095EA
:104220002095309503C000E010E09801C695C69532
:10423000C370BC01CD01602B712B822B932BC2303C
:1042400049F058F4C13019F00E940B2787C00E9432
:10425000F92684C00E941D2781C00E946C267EC062
:10426000CF70DD2339F08C2F0E949226802F0E9480
:10427000B21F74C0802F0E94B91F8C2F26C0023F2E
:1042800001F128F4003F41F0013FA1F03FC0033F9E
:10429000F9F0043F39F13AC0DD2341F0153008F060
:1042A0005DC08C2F8F710E94D82658C0163008F040
:1042B00055C0F7CFDD2339F08C2F8F710E949226E5
:1042C0004DC0DD23C9F38C2F8F710E94B32646C0E9
:1042D000DD2329F08C2F8F710E947D263FC00E9424
:1042E00078263CC0DD2349F0CF718C2F0E949226A6
:1042F00063E08C2F0E948B2831C081E00E94A028AF
:10430000123060F182E00E94A02828C0DD2331F045
:10431000112391F2802F0E94031F20C0112399F2D4
:10432000093349F49FEFE7EEF3E09150E040F040AD
:10433000E1F700C00000802F0E945E1F0FC04C2FCD
:104340004F70602FC7010E9405070E94A32506C079
:104350004C2F4F70602FC7010E94080788EF8C0D0B
:10436000843020F40E946C1D0E94FC06DD20C9F000
:104370000E94FD2780FD15C0F70112820E94F727D9
:104380000E949226C7010E94F2210E94F727DF9126
:10439000CF911F910F91FF90EF90DF90CF900C94F1
:1043A000B326DF91CF911F910F91FF90EF90DF9097
:1043B000CF9008950F931F93CF93DF93EC01688103
:1043C00079818A810E94D4278C010E942F270E9424
:1043D0002026B801CE010E94C01FDF91CF911F910E
:1043E0000F910895CF93DF93EC01988189812B8100
:1043F0003C81232B31F08F3F31F481E09F3F19F452
:1044000003C081E001C080E080FD19C0CE010E94A0
:10441000DA0581110CC00E940128882381F08A816D
:10442000882369F082E0DF91CF910C94A028CE011F
:104430000E94DA21CE01DF91CF910C944D05DF91DE
:10444000CF91089580E090E00E94A01D80E090E070
:104450000E94B61D0E9428280E9438280E945628D3
:104460000E94D10E0C94A00D809121019091220107
:104470000E941B2A0C9422220E9418280C94342299
:10448000E92FE295EF704E2F50E0FA013297EE30AF
:10449000F105B0F4E754FF4F0C943933803F91F0AD
:1044A00018F4883E68F40EC0843F51F40BC0883E77
:1044B00048F0813F29F406C093FB882780F90895CE
:1044C00080E0089581E008950E94C9270E9440225B
:1044D0000895CF93DF9300D000D01F92CDB7DEB701
:1044E0000F900F900F900F900F90DF91CF91089544
:1044F000CF93DF9300D000D000D0CDB7DEB72696A3
:104500000FB6F894DEBF0FBECDBFDF91CF910895F7
:104510001F93CF93DF93C091450216E0809146022E
:10452000C81799F0D0E01C9FF0011D9FF00D1124D9
:10453000E95BFD4F40815181628173818481958166
:104540000E9478222196C770E9CFDF91CF911F9109
:1045500008954091770250917802609179027091AC
:104560007A0280917B0290917C020C9478220F93C6
:104570001F93CF93DF9380917C0282958F7009F017
:104580005DC080917902882309F458C0809145026A
:10459000109146026091770270917802C0917A0280
:1045A000D0917B0291E06F3F09F090E0292F06E067
:1045B000811709F443C0209721F07F3F21F030E0BC
:1045C00003C031E001C0322F90E030FD34C0089FBD
:1045D000F001099FF00D1124DF01A95BBD4F119679
:1045E0003C911197371327C03C91361324C0129683
:1045F0003C91129731111FC013964D915C91149705
:104600004C1B5D0B483C5105B0F480917C028F70CF
:10461000806180937C02E45BFD4F80818F708061BC
:10462000808387E792E00E94F221DF91CF911F9172
:104630000F910C94882201968770BACFDF91CF91A9
:104640001F910F9108959F92AF92BF92CF92DF92E8
:10465000EF92FF920F931F93CF93DF93CDB7DEB707
:1046600061970FB6F894DEBF0FBECDBF8C0185E019
:10467000F801DE011D9601900D928A95E1F7F8018F
:1046800040815181E280909177026091780220917F
:104690007A0230917B022115310531F06F3F31F400
:1046A00081E09F3F19F403C081E001C080E0F82F52
:1046B000F1709F2E80FD46C1F801A380B48087E78A
:1046C000C82E82E0D82EF0907902F501E21BF30BA0
:1046D000FF2009F4DFC080917C02E83CF10508F07E
:1046E0009BC0282F207F09F052C0561313C04913D6
:1046F00011C0FE2CE1100EC08F70806180937C028F
:104700000E94A922C6010E94F22180917C02F80138
:10471000858358C1AB2831F05F3F31F481E04F3FD2
:1047200019F403C081E001C080E080FD03C081E096
:104730008E2502C080E090E0F82FF170FF2E80FF00
:104740001CC0809145022091460236E0821709F490
:1047500017C190E0389FF001399FF00D1124E95BFB
:10476000FD4F6181561306C06081461303C062810C
:10477000E61203C001968770E9CFFE2CEE2009F403
:1047800021C180917C02816080937C025AC05613C3
:1047900006C0491304C0E11002C0F8019FC04D8754
:1047A0005E878D859E850E946422882379F1EE20A4
:1047B00069F120917C02822F82958F7090E00297A0
:1047C00074F0809177029091780298878F83198690
:1047D000BB86AA862C87CE0107960E94F22186E02E
:1047E000F801A7E7B2E001900D928A95E1F70E94E7
:1047F000B7220E94A9220DC0561729F14D875E8766
:104800008D859E850E94642281112CC0C8010E9462
:10481000F221FF24F394D6C0282F207F69F77A2D48
:10482000B98AA88A6E2D89890E94692287E792E059
:104830000E94F22186E0F60111928A95E9F70E9422
:10484000A922F12CBFC04913D9CFE110D7CFF8016D
:104850008583C8010E94F22186E0F60111928A95B3
:10486000E9F7B0C0EE2091F220917C02822F829570
:104870008F7090E002970CF4B2CF80917702909104
:1048800078029A8389831B82BD82AC822E83CE01FB
:104890000196A3CFE83CF10508F047C0FE2CEE20BE
:1048A00009F4B4CF561330C049132EC020917C02B6
:1048B00020FD21C0822F82958F70482F50E0411536
:1048C0005105C9F0F80125834F30510541F08F5F44
:1048D000982F9295907F822F8F70892B8583C801A6
:1048E0000E94F22186E0F801A7E7B2E001900D9264
:1048F0008A95E1F742C086E0F801A7E7B2E00190AF
:104900000D928A95E1F75EC04D875E878D859E8505
:104910000E946422811163CF80917C028160809328
:104920007C02C8010E94F2214DC07A2DB98AA88A62
:104930006E2D89890E94692286E0F60111928A957E
:10494000E9F71BC0EE2009F461CF4D875E878D85A6
:104950009E850E946422F82E882309F457CF86E0B2
:10496000F801A7E7B2E001900D928A95E1F787E799
:1049700092E00E94FD1E0E94B7220E94A92222C03E
:104980004D875E878D859E850E94C927292F229598
:104990002F70223028F49F7039F0811105C00BC0B0
:1049A000243028F49F7049F4805E883020F0C801DC
:1049B0000E94F2219F2CF92C05C0F8019581907F6F
:1049C00099F7F9CF8F2D61960FB6F894DEBF0FBE21
:1049D000CDBFDF91CF911F910F91FF90EF90DF90AE
:1049E000CF90BF90AF909F9008951F93CF93DF9388
:1049F000CDB7DEB72C970FB6F894DEBF0FBECDBF94
:104A00004F83588769877A878B879C87CE01079663
:104A10000E9423238823D1F09F8188852A853B85A6
:104A2000232B31F08F3F31F481E09F3F19F403C015
:104A300081E001C080E080FD47C04F8158856985D5
:104A40007A858B859C850E9478223EC086E0FE0197
:104A50003796DE01119601900D928A95E1F7FF815C
:104A6000E8856A857B856115710531F0EF3F31F48A
:104A700081E0FF3F19F403C081E001C080E080FDC8
:104A800023C02091460230E0C90101968770992722
:104A90004091450250E084179507F1F1F983EA83CC
:104AA0007D836C8396E0929FD001939FB00D11247B
:104AB000A95BBD4FFE01319601900D929A95E1F7E9
:104AC000809346020E94882216E0809145029091D0
:104AD0004602891771F1189FC0011124895B9D4F0F
:104AE0000E942323882329F1E09145021E9FF001B3
:104AF0001124E95BFD4F4081518162817381848182
:104B000095810E9478228091450290E001968770FD
:104B1000992780934502D9CF0E943C2210924602E9
:104B200010924502E7E7F2E086E0DF011D928A95E8
:104B3000E9F72C960FB6F894DEBF0FBECDBFDF911C
:104B4000CF911F910895EF92FF920F931F93CF93F0
:104B5000DF938C01892B09F46CC0F12CEE24E394D3
:104B6000E8012196F8018491843740F4843008F0FC
:104B700051C0813081F0823019F15BC0853709F472
:104B800044C0A8F19CE7980F903708F052C08F7787
:104B90000E945E1F41C00E5F1F4FFE01849190E294
:104BA000980F983050F48770FE2D01C0FF0F8A9542
:104BB000EAF78F2F0E942B2814C00E94031F2DC0DC
:104BC0000E5F1F4FFE01849190E2980F983060F4C1
:104BD0008770FE2D01C0FF0F8A95EAF78F2F0E9484
:104BE00031280E94562819C00E945E1F16C00E5F11
:104BF0001F4FFE01C491CC2381F08FE99FE0019704
:104C0000F1F700C00000C150F6CF0E5F1F4FFE014C
:104C1000F49003C00E94031F8E018F2D882309F496
:104C20009FCFEFE9FFE03197F1F700C0000081501E
:104C3000F5CFDF91CF911F910F91FF90EF900895E5
:104C4000089508950C9421260C9422260E9424266F
:104C500060939F027093A0028093A1029093A2029E
:104C60000C9422220C9426260F931F9300919F02EE
:104C70001091A0022091A1023091A202602B712B11
:104C8000822B932B1F910F910C9426260F931F9329
:104C900000919F021091A0022091A1023091A202E6
:104CA00060237123822393231F910F910C94262656
:104CB0000F931F9300919F021091A0022091A102D7
:104CC0003091A20260277127822793271F910F91AD
:104CD0000C9426260C9421260E946A2660939B023F
:104CE00070939C0280939D0290939E020C942222CA
:104CF00060E070E0CB010C946C260F931F9341E0B1
:104D000050E060E070E08A019B0104C0000F111FB9
:104D1000221F331F8A95D2F7C901B8011F910F9145
:104D20000C946C260F931F9341E050E060E070E01C
:104D300004C0440F551F661F771F8A95D2F78091D4
:104D40009B0290919C02A0919D02B0919E028A01CB
:104D50009B01082B192B2A2B3B2BC901B8011F9152
:104D60000F910C946C260F931F9341E050E060E08C
:104D700070E004C0440F551F661F771F8A95D2F755
:104D8000409550956095709580919B0290919C0202
:104D9000A0919D02B0919E028A019B0108231923D4
:104DA0002A233B23C901B8011F910F910C946C2653
:104DB0000F931F9341E050E060E070E004C0440FA7
:104DC000551F661F771F8A95D2F780919B0290919D
:104DD0009C02A0919D02B0919E028A019B0108272E
:104DE00019272A273B27C901B8011F910F910C945D
:104DF0006C260F931F9300919B0210919C022091AF
:104E00009D0230919E02602B712B822B932B1F9160
:104E10000F910C946C260F931F9300919B0210919D
:104E20009C0220919D0230919E0260237123822377
:104E300093231F910F910C946C260F931F93009155
:104E40009B0210919C0220919D0230919E0260274E
:104E50007127822793271F910F910C946C26089538
:104E60002CE0929F800D1124E82FE695E695E695BB
:104E7000877051E001C0550F8A95EAF785E0E89FF9
:104E8000F0011124E358FD4F20E030E070E0408154
:104E9000CB01022E02C0969587950A94E2F78170A5
:104EA000819584278523842781932F5F3F4F253069
:104EB000310569F708952CE0929F800D1124682F29
:104EC000669566956695982F977085E0689FB00106
:104ED000112440E050E080E0FB01E40FF51FE358AF
:104EE000FD4F208130E0092E02C0369527950A94A7
:104EF000E2F721703327042E01C0220F0A94EAF74B
:104F0000822B4F5F5F4F4530510531F70895BF92B7
:104F1000CF92DF92EF92FF920F931F93CF93DF9385
:104F20008C01C0909B02D0909C02E0909D02F0907A
:104F30009E0280919F029091A002A091A102B09147
:104F4000A202C82AD92AEA2AFB2ACFE1D0E0D70157
:104F5000C6010C2E04C0B695A795979587950A941F
:104F6000D2F780FD04C0219790F7B12C07C0BC2E6A
:104F7000B8018C2F0E9411070197A9F38B2DDF91A7
:104F8000CF911F910F91FF90EF90DF90CF90BF9046
:104F90000895CF93DF93EC010E948727BE010E9402
:104FA0001107DF91CF9108951F93CF93DF93EB010A
:104FB00090914402992321F0CB010E94C92713C08C
:104FC000882349F0CB010E948727182F682FCE0134
:104FD0000E94302704C0CB010E945B27182FBE011E
:104FE000812F0E941107DF91CF911F910895809129
:104FF000A30285958595859508958091A302877074
:1050000008959091A302977081E009F480E00895DB
:105010008091C70208959091C702892B8093C7029F
:10502000089580959091C70289238093C7020895BF
:105030001092C70208959091C602892B8093C602F0
:10504000089580959091C60289238093C6020895A1
:105050001092C60208959091C502892B8093C502D3
:10506000089580959091C50289238093C502089583
:105070001092C50208958091A402089508950C9499
:105080003E280C943F289091A402981721F0809319
:10509000A4020C94412808958091A402882329F049
:1050A0001092A40280E00C9441280895E09121011F
:1050B000F09122018091C7028083E0912101F0915B
:1050C000220190818091C602892B8083E091210189
:1050D000F091220190818091C502892B808380917B
:1050E000A402882381F0E0912101F09122019081B6
:1050F000892B808380912101909122010E946F2948
:1051000081110E944C2880912101909122010C94E0
:10511000781D0C943E2898E0899F90011124262B3D
:105120002093A3020E9492268091A30285958595E3
:1051300085950C9489281092A30280E00C9489280C
:105140002091A302809582238093A302982F9770C9
:1051500079F430E0482F082E000C550B2417350742
:1051600039F08595859585950E94B3260C949B28EA
:10517000089580E008956FEF7FEF80E090E00C9459
:10518000223480E090E00E94FE3321E08B3E9E4F6F
:1051900009F020E0822F089582E090E00C94F03333
:1051A00083E090E00C94F033CF9384E090E00E9491
:1051B000F033C82F81E290E00E94F0332C2F30E0D2
:1051C000A901582BCA01CF910895CF93C92F682FF9
:1051D00084E090E00E9404346C2F81E290E0CF9153
:1051E0000C940434AB01BC018FE090E00C941634B5
:1051F000AB01BC0183E190E00C94163460E070E0F8
:10520000CB010C94F82860E070E0CB010E94F228FA
:105210000C94FE286BEE7EEF80E090E00E9422343A
:1052200060E082E090E00E94043460E083E090E07F
:105230000E94043410929F021092A0021092A102C8
:105240001092A20260E084E090E00E94043460E0EA
:1052500081E290E00E94043460E085E090E00E94EA
:10526000043460E086E090E00E9404346FEF87E051
:1052700090E00E94043440E050E0BA0188E090E001
:105280000E94163460E08DE090E00E94043440E01B
:1052900050E0BA0188E190E00E94163460E087E1B6
:1052A00090E00E94043440E050E0BA018CE190E0CC
:1052B0000E94163460E080E290E00E94043440E0F6
:1052C00050E0BA0188E190E00E9416340C94032962
:1052D0000C940A29682F8EE090E00C940434FC01B1
:1052E000329680912D01882331F08091140387FF3D
:1052F00002C09EE101C096E080E0915028F021912B
:105300002223D9F38F5FF9CF0895662351F12091BD
:105310002D012223E9F02091140327FF19C0462F05
:105320004695469546954E31E0F4677021E030E0B1
:1053300002C0220F331F6A95E2F7FC01E40FF11D52
:10534000828190E02823392381E0232B69F409C06E
:10535000FC01329608962191621729F0E817F907A7
:10536000D1F780E0089581E008959C01FC01329618
:105370009FEF80E04191461789F09F3F19F441115A
:1053800001C0982F8F5F8630A9F79F3F39F0F90150
:10539000E90FF11D97FDFA956283089508959C0128
:1053A0002A5F3F4FFC014281461301C012820196E1
:1053B00082179307B9F70895262F269526952695E7
:1053C0002E3168F4FC01E20FF11D677021E030E03E
:1053D00001C0220F6A95EAF78281282B2283089563
:1053E000262F2695269526952E3170F4FC01E20F86
:1053F000F11D677021E030E001C0220F6A95EAF7E5
:105400002095828128232283089520912D01222333
:1054100029F02091140327FD0C94DC290C94B52964
:1054200020912D01222329F02091140327FD0C94B3
:10543000F0290C94CF2920912D01FC0132962223D2
:1054400031F08091140387FF02C08EE101C086E035
:10545000DF011D928A95E9F7089508950C942D2A8D
:105460000C942D2ACF930E94302A0E9475090E9425
:105470002E2AC0E08C2F0E940009892B29F4CF5FCF
:10548000C430C1F780E001C081E0CF9108950C9451
:105490002D2A0C94472A80911A03843049F10E94E6
:1054A000492A80E00E94FC061092C90220E488E1AB
:1054B00090E00FB6F894A895809360000FBE2093FB
:1054C000600083B7817F846083BF83B7816083BFBF
:1054D0007894889583B78E7F83BF0FB6F894A8958C
:1054E00080916000886180936000109260000FBE20
:1054F00008950C942D2A0E943C220E946C1D0E944B
:10550000FC060C94792A1F920F920FB60F92112469
:105510008F939F93AF93BF938091C902811113C062
:105520008091100390911103A0911203B091130385
:105530004196A11DB11D8093100390931103A09378
:105540001203B0931303BF91AF919F918F910F906E
:105550000FBE0F901F90189582E084BD93E095BD1B
:105560009AEF97BD80936E0008952FB7F8948091BD
:10557000100390911103A0911203B09113032FBF58
:1055800008952FB7F89460911003709111038091E2
:105590001203909113032FBF08959C014FB7F89405
:1055A0008091100390911103A0911203B091130305
:1055B0004FBF821B930B089578941F920F920FB6E2
:1055C0000F9211248F939F93AF93BF9380911003F9
:1055D00090911103A0911203B09113030196A11DA4
:1055E000B11D8093100390931103A0931203B09305
:1055F0001303BF91AF919F918F910F900FBE0F90AA
:105600001F90189587E797E790930108809300080B
:105610009AE088E10FB6F894A895809360000FBED9
:1056200090936000FFCF9093ED018093EC0108957B
:105630000C940D170E9475098FE39CE90197F1F70F
:1056400000C000000E94750980E00E94000980FFF0
:1056500004C00E94182B0C94022B08950E94C128AC
:10566000811102C00E9468290E94CC288093C80240
:105670000E94D42890931503809314030E94D0288D
:10568000682F70E080E090E00E94322660919B02DB
:1056900070919C0280919D0290919E020C946A26CA
:1056A0008091EA020895CF93DF9300D01F92CDB787
:1056B000DEB790911A03943011F589837B836A8356
:1056C0009093E9008FEF9091E800815095FD06C01E
:1056D00095ED9A95F1F700008111F5CF8091E800E2
:1056E00085FF0DC040E050E063E070E0CE01019620
:1056F0000E94EC2D8091E8008E778093E8000F9057
:105700000F900F90DF91CF910895BC0184E00C942D
:10571000532BBC0183E00C94532B24E02093E9002D
:105720002FEF3091E800215035FD06C035ED3A9558
:10573000F1F700002111F5CF2091E80025FF0BC003
:1057400040E050E066E070E00E94EC2D8091E800BF
:105750008E778093E8000895CF93DF9320912D01F9
:10576000222339F02091140327FF03C060E224E0D4
:1057700002C068E021E02093E9002FEF3091E800BB
:10578000215035FD06C035ED3A95F1F700002111A5
:10579000F5CF2091E80025FF1DC0EC0180912D017F
:1057A000811105C040E050E068E070E003C070E0A7
:1057B00040E050E0CE010E94EC2D8091E8008E7711
:1057C0008093E80080E2FE01AAECB2E001900D9225
:1057D0008A95E1F7DF91CF910895CF93603219F563
:1057E00020911A032430F9F4C091E900CF70309170
:1057F000EC00232F217030FD20E8C22B22E0209303
:10580000E9002091E80020FF0BC040E050E060E29A
:1058100070E00E94EC2D8091E8008E778093E80084
:10582000CF70C093E900CF91089580911903811141
:1058300009C00E94C82F0E9425308091E200846038
:105840008093E20008951092190308950895089531
:10585000089542E061EC81E00E94412F42E261EC58
:1058600084E00E94412F42E261EC82E00E94412FDD
:1058700042E260EC83E00C94412F80911C03833062
:1058800009F462C030F4813071F0823009F49BC0B9
:1058900008958A3009F487C08B3009F46DC08930CF
:1058A00009F0A9C020C080911B03813A09F0A3C070
:1058B0008091E800877F8093E80080911F0390919A
:1058C0002003892B21F460E28AEC92E003C060E0BF
:1058D00080E090E070E00E94822E8091E8008B775B
:1058E0008093E800089580911B03813209F083C002
:1058F00080911F0390912003009719F0029709F0FF
:105900007AC08091E800877F8093E8008091E8006A
:1059100082FD05C080911A038111F8CF6CC02091DF
:10592000F3008091F20090E0922B029729F480918D
:10593000F1008B7F813021F48091F1008093EA02A5
:105940008091E8008B7753C080911B03813A09F066
:1059500052C080911F0390912003892B09F04BC006
:105960008091E800877F8093E8008091E80080FFC5
:10597000FCCF80912D0136C080911B038132D9F577
:1059800080911F0390912003892BA9F58091E80055
:10599000877F8093E8000E94762F80911D0380937B
:1059A0002D010C943C2280911B03813221F58091C2
:1059B000E800877F8093E8000E94762F80911E0385
:1059C0008093EB02089580911B03813AA1F48091AA
:1059D000E800877F8093E8008091E80080FFFCCF9B
:1059E0008091EB028093F1008091E8008E778093A4
:1059F000E8000C94762F08951F93CF93DF93CDB7D3
:105A0000DEB7A0970FB6F894DEBF0FBECDBF84B748
:105A1000877F84BF0FB6F894A89580916000886155
:105A200080936000109260000FBE90E080E80FB697
:105A3000F89480936100909361000FBE0E94F71D5F
:105A40000E94C82F0E9425308091E20084608093DC
:105A5000E20078940E94BA320E94011E83E291E033
:105A60000E94671D13E080911A038530A9F480918C
:105A70001A03853079F40E944B2A809118038823F9
:105A8000B1F30E94322A882391F30E94D62D0E94FE
:105A90003C22EDCF0E947B2A0E940D1E80911A03AA
:105AA000843009F51093E9008091E80082FF1BC063
:105AB0008091E80085FF0AC040E050E060E270E0BD
:105AC000CE0101960E94372E91E001C090E08091B6
:105AD000E8008B778093E800992329F060E2CE01FB
